{
  "contractName": "Rides",
  "abi": [
    {
      "inputs": [],
      "stateMutability": "nonpayable",
      "type": "constructor"
    },
    {
      "inputs": [],
      "name": "driver",
      "outputs": [
        {
          "internalType": "address",
          "name": "",
          "type": "address"
        }
      ],
      "stateMutability": "view",
      "type": "function",
      "constant": true
    },
    {
      "inputs": [
        {
          "internalType": "uint256",
          "name": "",
          "type": "uint256"
        }
      ],
      "name": "pass",
      "outputs": [
        {
          "internalType": "uint256",
          "name": "price",
          "type": "uint256"
        },
        {
          "internalType": "address",
          "name": "owner",
          "type": "address"
        },
        {
          "internalType": "uint256",
          "name": "routeNo",
          "type": "uint256"
        }
      ],
      "stateMutability": "view",
      "type": "function",
      "constant": true
    },
    {
      "inputs": [
        {
          "internalType": "uint256",
          "name": "_index",
          "type": "uint256"
        },
        {
          "internalType": "string",
          "name": "_fromAddress",
          "type": "string"
        },
        {
          "internalType": "string",
          "name": "_toAddress",
          "type": "string"
        }
      ],
      "name": "buyPass",
      "outputs": [],
      "stateMutability": "payable",
      "type": "function",
      "payable": true
    }
  ],
  "bytecode": "0x6080604052336000806101000a81548173ffffffffffffffffffffffffffffffffffffffff021916908373ffffffffffffffffffffffffffffffffffffffff1602179055503480156200005157600080fd5b5060005b6004811015620005195760056001826004811062000078576200007762000520565b5b6005020160020181905550600181600481106200009a576200009962000520565b5b6005020160030180600181540180825580915050600190039060005260206000200160006040518060400160405280600981526020017f5468756d6b756e7461000000000000000000000000000000000000000000000081525090919091509081620001079190620007c9565b50600181600481106200011f576200011e62000520565b5b60050201600401600090806001815401808255809150506001900390600052602060002001600090919091909150556001816004811062000165576200016462000520565b5b6005020160030180600181540180825580915050600190039060005260206000200160006040518060400160405280600381526020017f4a4253000000000000000000000000000000000000000000000000000000000081525090919091509081620001d29190620007c9565b5060018160048110620001ea57620001e962000520565b5b60050201600401600f90806001815401808255809150506001900390600052602060002001600090919091909150556001816004811062000230576200022f62000520565b5b6005020160030180600181540180825580915050600190039060005260206000200160006040518060400160405280600b81526020017f4d656864697061746e616d000000000000000000000000000000000000000000815250909190915090816200029d9190620007c9565b5060018160048110620002b557620002b462000520565b5b600502016004016019908060018154018082558091505060019003906000526020600020016000909190919091505560018160048110620002fb57620002fa62000520565b5b6005020160030180600181540180825580915050600190039060005260206000200160006040518060400160405280600a81526020017f5368616d7368616261640000000000000000000000000000000000000000000081525090919091509081620003689190620007c9565b506001816004811062000380576200037f62000520565b5b600502016004016023908060018154018082558091505060019003906000526020600020016000909190919091505560018160048110620003c657620003c562000520565b5b6005020160030180600181540180825580915050600190039060005260206000200160006040518060400160405280600781526020017f416972706f72740000000000000000000000000000000000000000000000000081525090919091509081620004339190620007c9565b50600181600481106200044b576200044a62000520565b5b600502016004016028908060018154018082558091505060019003906000526020600020016000909190919091505567016345785d8a0000600182600481106200049a576200049962000520565b5b6005020160000181905550600060018260048110620004be57620004bd62000520565b5b6005020160010160006101000a81548173ffffffffffffffffffffffffffffffffffffffff021916908373ffffffffffffffffffffffffffffffffffffffff16021790555080806200051090620008df565b91505062000055565b506200092c565b7f4e487b7100000000000000000000000000000000000000000000000000000000600052603260045260246000fd5b600081519050919050565b7f4e487b7100000000000000000000000000000000000000000000000000000000600052604160045260246000fd5b7f4e487b7100000000000000000000000000000000000000000000000000000000600052602260045260246000fd5b60006002820490506001821680620005d157607f821691505b602082108103620005e757620005e662000589565b5b50919050565b60008190508160005260206000209050919050565b60006020601f8301049050919050565b600082821b905092915050565b600060088302620006517fffffffffffffffffffffffffffffffffffffffffffffffffffffffffffffffff8262000612565b6200065d868362000612565b95508019841693508086168417925050509392505050565b6000819050919050565b6000819050919050565b6000620006aa620006a46200069e8462000675565b6200067f565b62000675565b9050919050565b6000819050919050565b620006c68362000689565b620006de620006d582620006b1565b8484546200061f565b825550505050565b600090565b620006f5620006e6565b62000702818484620006bb565b505050565b5b818110156200072a576200071e600082620006eb565b60018101905062000708565b5050565b601f82111562000779576200074381620005ed565b6200074e8462000602565b810160208510156200075e578190505b620007766200076d8562000602565b83018262000707565b50505b505050565b600082821c905092915050565b60006200079e600019846008026200077e565b1980831691505092915050565b6000620007b983836200078b565b9150826002028217905092915050565b620007d4826200054f565b67ffffffffffffffff811115620007f057620007ef6200055a565b5b620007fc8254620005b8565b620008098282856200072e565b600060209050601f8311600181146200084157600084156200082c578287015190505b620008388582620007ab565b865550620008a8565b601f1984166200085186620005ed565b60005b828110156200087b5784890151825560018201915060208501945060208101905062000854565b868310156200089b578489015162000897601f8916826200078b565b8355505b6001600288020188555050505b505050505050565b7f4e487b7100000000000000000000000000000000000000000000000000000000600052601160045260246000fd5b6000620008ec8262000675565b91507fffffffffffffffffffffffffffffffffffffffffffffffffffffffffffffffff8203620009215762000920620008b0565b5b600182019050919050565b610b20806200093c6000396000f3fe6080604052600436106100345760003560e01c80636ecc5d6214610039578063783df10a14610064578063d67c996114610080575b600080fd5b34801561004557600080fd5b5061004e6100bf565b60405161005b9190610691565b60405180910390f35b61007e6004803603810190610079919061083c565b6100e3565b005b34801561008c57600080fd5b506100a760048036038101906100a291906108c7565b61051c565b6040516100b693929190610903565b60405180910390f35b60008054906101000a900473ffffffffffffffffffffffffffffffffffffffff1681565b6004831080156100f4575060008310155b6100fd57600080fd5b600073ffffffffffffffffffffffffffffffffffffffff16600184600481106101295761012861093a565b5b6005020160010160009054906101000a900473ffffffffffffffffffffffffffffffffffffffff1673ffffffffffffffffffffffffffffffffffffffff161461017157600080fd5b60007fffffffffffffffffffffffffffffffffffffffffffffffffffffffffffffffff905060007fffffffffffffffffffffffffffffffffffffffffffffffffffffffffffffffff905060005b600186600481106101d2576101d161093a565b5b6005020160020154811015610398576102aa85600188600481106101f9576101f861093a565b5b6005020160030183815481106102125761021161093a565b5b90600052602060002001805461022790610998565b80601f016020809104026020016040519081016040528092919081815260200182805461025390610998565b80156102a05780601f10610275576101008083540402835291602001916102a0565b820191906000526020600020905b81548152906001019060200180831161028357829003601f168201915b505050505061056c565b156102b3578092505b61037c84600188600481106102cb576102ca61093a565b5b6005020160030183815481106102e4576102e361093a565b5b9060005260206000200180546102f990610998565b80601f016020809104026020016040519081016040528092919081815260200182805461032590610998565b80156103725780601f1061034757610100808354040283529160200191610372565b820191906000526020600020905b81548152906001019060200180831161035557829003601f168201915b505050505061056c565b15610385578091505b8080610390906109f8565b9150506101be565b507fffffffffffffffffffffffffffffffffffffffffffffffffffffffffffffffff82141580156103e957507fffffffffffffffffffffffffffffffffffffffffffffffffffffffffffffffff8114155b80156103f457508181135b6103fd57600080fd5b600185600481106104115761041061093a565b5b60050201600401828154811061042a5761042961093a565b5b9060005260206000200154600186600481106104495761044861093a565b5b6005020160040182815481106104625761046161093a565b5b90600052602060002001546104779190610a40565b662386f26fc100006104899190610a74565b6001866004811061049d5761049c61093a565b5b60050201600001546104af9190610ab6565b3410156104bb57600080fd5b33600186600481106104d0576104cf61093a565b5b6005020160010160006101000a81548173ffffffffffffffffffffffffffffffffffffffff021916908373ffffffffffffffffffffffffffffffffffffffff1602179055505050505050565b6001816004811061052c57600080fd5b600502016000915090508060000154908060010160009054906101000a900473ffffffffffffffffffffffffffffffffffffffff16908060020154905083565b600080839050600083905060008251905081518114610591576000935050505061064a565b60005b81811015610641578281815181106105af576105ae61093a565b5b602001015160f81c60f81b7effffffffffffffffffffffffffffffffffffffffffffffffffffffffffffff19168482815181106105ef576105ee61093a565b5b602001015160f81c60f81b7effffffffffffffffffffffffffffffffffffffffffffffffffffffffffffff19161461062e57600094505050505061064a565b8080610639906109f8565b915050610594565b50600193505050505b92915050565b600073ffffffffffffffffffffffffffffffffffffffff82169050919050565b600061067b82610650565b9050919050565b61068b81610670565b82525050565b60006020820190506106a66000830184610682565b92915050565b6000604051905090565b600080fd5b600080fd5b6000819050919050565b6106d3816106c0565b81146106de57600080fd5b50565b6000813590506106f0816106ca565b92915050565b600080fd5b600080fd5b6000601f19601f8301169050919050565b7f4e487b7100000000000000000000000000000000000000000000000000000000600052604160045260246000fd5b61074982610700565b810181811067ffffffffffffffff8211171561076857610767610711565b5b80604052505050565b600061077b6106ac565b90506107878282610740565b919050565b600067ffffffffffffffff8211156107a7576107a6610711565b5b6107b082610700565b9050602081019050919050565b82818337600083830152505050565b60006107df6107da8461078c565b610771565b9050828152602081018484840111156107fb576107fa6106fb565b5b6108068482856107bd565b509392505050565b600082601f830112610823576108226106f6565b5b81356108338482602086016107cc565b91505092915050565b600080600060608486031215610855576108546106b6565b5b6000610863868287016106e1565b935050602084013567ffffffffffffffff811115610884576108836106bb565b5b6108908682870161080e565b925050604084013567ffffffffffffffff8111156108b1576108b06106bb565b5b6108bd8682870161080e565b9150509250925092565b6000602082840312156108dd576108dc6106b6565b5b60006108eb848285016106e1565b91505092915050565b6108fd816106c0565b82525050565b600060608201905061091860008301866108f4565b6109256020830185610682565b61093260408301846108f4565b949350505050565b7f4e487b7100000000000000000000000000000000000000000000000000000000600052603260045260246000fd5b7f4e487b7100000000000000000000000000000000000000000000000000000000600052602260045260246000fd5b600060028204905060018216806109b057607f821691505b6020821081036109c3576109c2610969565b5b50919050565b7f4e487b7100000000000000000000000000000000000000000000000000000000600052601160045260246000fd5b6000610a03826106c0565b91507fffffffffffffffffffffffffffffffffffffffffffffffffffffffffffffffff8203610a3557610a346109c9565b5b600182019050919050565b6000610a4b826106c0565b9150610a56836106c0565b9250828203905081811115610a6e57610a6d6109c9565b5b92915050565b6000610a7f826106c0565b9150610a8a836106c0565b9250828202610a98816106c0565b91508282048414831517610aaf57610aae6109c9565b5b5092915050565b6000610ac1826106c0565b9150610acc836106c0565b9250828201905080821115610ae457610ae36109c9565b5b9291505056fea2646970667358221220b1572a9c1b0c59a725c3ca201f5c85626078e578accd8b6368b4340a0a8e4f1364736f6c63430008110033",
  "immutableReferences": {},
  "source": "// SPDX-License-Identifier: MIT\r\npragma solidity >=0.4.22 <0.9.0;\r\n\r\n//import \"https://github.com/ethereum/dapp-bin/blob/master/library/stringUtils.sol\";\r\n//import \"hardhat/console.sol\";\r\n\r\nuint256 constant MAX_PASSENGERS = 4;\r\n\r\ncontract Rides {\r\n  address public driver = msg.sender;\r\n\r\n  struct ridePass {\r\n    uint256 price;\r\n    address owner;\r\n    uint routeNo;\r\n    string[] route;\r\n    uint[] distance;\r\n  }\r\n\r\n  ridePass[MAX_PASSENGERS] public pass;\r\n\r\n  constructor() {\r\n    for (uint256 i = 0; i < MAX_PASSENGERS; i++) {\r\n      \r\n      //pass[i].price = 1e17*pass[i].distance; // 0.1 ETH per km\r\n      pass[i].routeNo = 5;\r\n      \r\n      pass[i].route.push(\"Thumkunta\");\r\n      pass[i].distance.push(0);\r\n      pass[i].route.push(\"JBS\");\r\n      pass[i].distance.push(15);\r\n      pass[i].route.push(\"Mehdipatnam\");\r\n      pass[i].distance.push(25);\r\n      pass[i].route.push(\"Shamshabad\");\r\n      pass[i].distance.push(35);\r\n      pass[i].route.push(\"Airport\");\r\n      pass[i].distance.push(40);\r\n      \r\n      pass[i].price = 1e17;\r\n\r\n      pass[i].owner = address(0x0);\r\n    }\r\n  }\r\n  function stringsEquals(string memory s1, string memory s2) private pure returns (bool) {\r\n    bytes memory b1 = bytes(s1);\r\n    bytes memory b2 = bytes(s2);\r\n    uint256 l1 = b1.length;\r\n    if (l1 != b2.length) return false;\r\n    for (uint256 i=0; i<l1; i++) {\r\n        if (b1[i] != b2[i]) return false;\r\n    }\r\n    return true;\r\n}\r\n\r\n  function buyPass(uint256 _index, string memory _fromAddress, string memory _toAddress) external payable {\r\n    require(_index < MAX_PASSENGERS && _index >= 0);\r\n    require(pass[_index].owner == address(0x0));\r\n\r\n    int l=-1;\r\n    int u=-1;\r\n    for(uint i=0;i<pass[_index].routeNo;i++)\r\n    {\r\n      if(stringsEquals(_fromAddress, pass[_index].route[i]))\r\n      {\r\n        l=int(i);\r\n      }\r\n      if(stringsEquals(_toAddress, pass[_index].route[i]))\r\n      {\r\n        u=int(i);\r\n      }\r\n    }\r\n    require(l!=-1 && u!=-1 && u>l);\r\n    // cost is (0.1 + 0.01*distance) ETH\r\n    require(msg.value >= ((pass[_index].price)+1e16*(pass[_index].distance[uint(u)] - pass[_index].distance[uint(l)])));\r\n\r\n    pass[_index].owner = msg.sender;\r\n  }\r\n}",
  "sourcePath": "C:\\Users\\adity\\Desktop\\dapp1\\contracts\\Rides.sol",
  "compiler": {
    "name": "solc",
    "version": "0.8.17+commit.8df45f5f.Emscripten.clang"
  },
  "schemaVersion": "3.4.11",
  "updatedAt": "2023-07-17T06:40:57.438Z",
  "networkType": "ethereum",
  "devdoc": {
    "kind": "dev",
    "methods": {},
    "version": 1
  },
  "userdoc": {
    "kind": "user",
    "methods": {},
    "version": 1
  }
}